:020000040800F2
:1000000018AF0020C9190008D7020008D90200085B
:10001000DB020008DD020008DF020008000000002B
:10002000000000000000000000000000290200089D
:10003000E1020008000000006D02000879160008C7
:10004000E3190008E3190008E3190008E3190008A0
:10005000E3190008E3190008E3190008E319000890
:10006000E3190008E3190008E3190008E319000880
:10007000E3190008E3190008E3190008E319000870
:10008000E3190008E3190008E3190008E319000860
:10009000E3190008E3190008E3190008E319000850
:1000A000E3190008E3190008E3190008E319000840
:1000B000E31900080F160008E3190008E319000807
:1000C000E3190008E3190008E3190008E319000820
:1000D000E3190008E3190008E3190008E319000810
:1000E000E3190008E3190008E3190008E319000800
:1000F000E3190008E3190008E3190008E3190008F0
:10010000E3190008E3190008E3190008E3190008DF
:10011000E3190008E3190008E3190008E3190008CF
:10012000E3190008E3190008E3190008E3190008BF
:1001300000F002F800F068F80AA090E8000C824491
:100140008344AAF10107DA4501D100F05DF8AFF26E
:10015000090EBAE80F0013F0010F18BFFB1A43F0A5
:1001600001031847C4240300E42403000A444FF0A9
:10017000000C10F8013B13F0070408BF10F8014B06
:100180001D1108BF10F8015B641E05D010F8016B4B
:10019000641E01F8016BF9D113F0080F1EBF10F8AF
:1001A000014BAD1C0C1B09D16D1E58BF01F801CBD2
:1001B000FAD505E014F8016B01F8016B6D1EF9D555
:1001C0009142D6D37047000000230024002500266A
:1001D000103A28BF78C1FBD8520728BF30C148BFAA
:1001E0000B607047642908F0BF85752908F0BC854D
:1001F000632908F0B887732908F0BD87002070478D
:100200001FB51FBD10B510BD09F054F81146FFF71A
:10021000F7FF00F054F809F072F803B4FFF7F2FFAB
:1002200003BC01F023FB0000224B19680868B0E80A
:10023000F00F80F30988BFF36F8F4FF0000080F359
:1002400011884EF00D0E704700000000064800684F
:10025000006880F3088862B661B6BFF34F8FBFF3C2
:100260006F8F00DF00BF00BF08ED00E0EFF30980F3
:10027000BFF36F8F0F4B1A6820E9F00F106008B5BD
:100280004FF0500080F31188BFF34F8FBFF36F8F93
:1002900004F04AF84FF0000080F31188BDE80840F0
:1002A00019680868B0E8F00F80F30988BFF36F8F12
:1002B000704700BF3C000020EFF30580704710B589
:1002C00001F04CFA482001F01BFB06F0D5F804F0D1
:1002D00043F9002010BD7047FEE7FEE7FEE7FEE7AA
:1002E000704700000CB500224C4800920192016852
:1002F00041F4803101604FF4A063016801F40031E2
:1003000001910099491C0091019911B900999942F4
:10031000F3D10168890333D50121019140490A686D
:1003200042F010020A600A6822F003020A600A68BA
:1003300042F002020A6041684160416841604168E0
:1003400041F480614160416821F47C114160416861
:1003500041F4E8114160016841F080710160016879
:100360008901FCD5416821F003014160416841F0F9
:10037000020141604168C1F381010229FAD10CBD3B
:1003800001920CBD254810B5016841F001010160E2
:100390004168244A114041600168234A11400160CC
:1003A000016821F480210160416821F4FE0141606F
:1003B0004FF41F018160FFF795FF1C494FF000606B
:1003C000086010BD154A10B55068194B10F00C01AB
:1003D000184803D0042901D0082901D0036012E095
:1003E0005168536801F470114FF0020413F4803F18
:1003F00004EB914102D053689B0301D50E4B00E002
:100400000B4B5943016051680A4AC1F30311121D95
:10041000515C0268CA40026010BD0000001002403A
:10042000002002400000FFF8FFFFF6FE08ED00E0AC
:1004300000127A000000002000093D0038B50121BB
:100440000C2001F078FD4FF4C050ADF800001020F2
:100450008DF803000320374D8DF8020069462846C9
:1004600001F081FBAC142146284601F0E6FB611047
:10047000284601F0E2FB4FF470402F4DADF800002C
:100480006946284601F06FFB2146284601F0D5FB5E
:100490006100284601F0D1FBA100284601F0CDFB08
:1004A000E100284601F0C9FB38BD70B5A0F65550F3
:1004B0000AF094F921490AF07BF86FF07D51421857
:1004C0004FF4800500231E49AA4208D2C1F8B0317A
:1004D000C1F8B431C1F8B831C1F8BC3170BD6FF0AA
:1004E0007C5284180122AC4206D2C1F8B031C1F866
:1004F000B431C1F8B8310AE06FF07A540444B4F56D
:10050000000F07D2C1F8B031C1F8B4310EE0C1F824
:10051000BC2170BDA0F50000B0F1785F02D8C1F831
:10052000B03101E0C1F8B021C1F8B421C1F8B8215F
:10053000EDE7000000080140000C014000C02A4423
:100540000080214208B50121242001F0F4FC202084
:10055000ADF8000010208DF8030003208DF8020094
:1005600069460D4801F0FFFA0420ADF80000694625
:100570000A4801F0F8FA08BD2021074801F05DBBE8
:100580002021054801F05BBB0421044801F055BB64
:100590000421024801F053BB00080140001401404F
:1005A00030B587B001214FF4057001F0C4FC4FF461
:1005B000004001F054FC0620ADF8140000248DF832
:1005C000174005A9314801F0CEFA3020ADF81400EB
:1005D0008DF8174005A92E4801F0C5FA2D4D284683
:1005E00001F08CFE4FF46020CDE9020401208DF86B
:1005F00004408DF8100000948DF8054069462846A7
:1006000001F098FE0121284601F0BCFE284601F0C9
:10061000D6FE284601F0D8FE0028FAD1284601F07F
:10062000DAFE284601F0DCFE0028FAD107B030BD22
:1006300010B5184C014607230122204601F0FAFEAE
:100640000121204601F0D3FE0221204601F0C6FF21
:100650000028F9D02046BDE8104001F02FBF2DE959
:10066000F04100250E4607462C4608E03846FFF7C5
:10067000DFFF0544052001F03FF8641CE4B2B442FA
:10068000F4D3B5FBF6F080B2BDE8F081000801407C
:1006900000100140002401402DE9F04780461F462C
:1006A000581E83B21646501E82B20D464046DDF8F3
:1006B000209000F0D9FC0AE0444604E0484600F0EF
:1006C000BAFC641CA4B2B442F8D36D1CADB2BD42F6
:1006D000F2D3BDE8F08710B514460B46024600F091
:1006E000C3FC2046BDE8104000F0A5BC2DE9FE4F3C
:1006F0000026A2EB000882465F1A701E3546894626
:10070000B8F1000F02DD4FF0010102E003D14FF01C
:100710000001019102E0C8F100080190002F02DD04
:100720004FF0010002E003D14FF00000009002E022
:10073000C7F1000700904046B84501DD044600E0DF
:100740003C46601C4FF0000B029016E01FFA89F146
:100750001FFA8AF00C9AFFF7BEFF46443D44A642BA
:1007600002DD0199361B8A44A54202DD00992D1B4A
:1007700089440BF101001FFA80FB02998B45E5DBF0
:10078000BDE8FE8F2DE9F8431D46089C16468846B5
:1007900007460B460094FFF7A9FF3A462B46414611
:1007A00010460094FFF7A2FF2B4632461946384602
:1007B0000094FFF79BFF32462B46414610460094BB
:1007C000FFF794FFBDE8F8832DE9FF4F83B00E4695
:1007D00007460025059C4FE0381B0190A6EB050855
:1007E0001FFA88F180B2069AFFF775FF07EB040B3A
:1007F0001FFA88F11FFA8BF0069AFFF76CFF301989
:1008000081B2A7EB050800901FFA88F0069AFFF75F
:1008100062FFA6EB040A1FFA8AF11FFA88F0069A13
:10082000FFF759FF06EB05091FFA89F11FFA8BF054
:10083000069AFFF750FF07EB05081FFA8AF11FFA27
:1008400088F0069AFFF747FF0098069A81B21FFAD0
:1008500088F0FFF740FF01981FFA89F180B2069AED
:10086000FFF739FF6D1C05FB05F004FB040105983B
:100870004043814200DD641EA542ADDD07B0BDE806
:10088000F08F2DE9FF4F85B00546139F002600909D
:100890008B46780700D0012000EBD7007843029008
:1008A00002204FF0000A0390F849079A0AEB8A10D9
:1008B00011F81030127893424DD101EB40000190B5
:1008C000417807984078814245D10BEB0700401EE4
:1008D00083B2E819401E82B25946284600F0C4FB94
:1008E000002034E00198002400EB0809149899F8DE
:1008F000021000284FF0010000FA04F001EA0001A4
:1009000011D021B159462846089AFFF7E4FE6D1C24
:100910000098ADB2281AB84212D10BF101001FFAAB
:1009200080FB009D10E009B1089800E0129800F0EB
:1009300082FB761CF6B2B6FBF7F007FB106098B1AD
:10094000641CE4B2082CD1D308F10100C0B20299B2
:1009500080468842C6D30AF1010003991FFA80FA43
:100960008A45A1D309B08AE70026EDE72DE9FF4FBC
:1009700085B00546139F002600908B46780700D06F
:10098000012000EBD7007843029002200390002062
:10099000824600EB800101EB4A10BC49079A94396A
:1009A00011F81030127893424DD101EB40000190C4
:1009B000417807984078814245D10BEB0700401EF3
:1009C00083B2E819401E82B25946284600F04CFB1B
:1009D000002034E00198002400EB0809149899F8ED
:1009E000021000284FF0010000FA04F001EA0001B3
:1009F00011D021B159462846089AFFF76CFE6D1CAC
:100A00000098ADB2281AB84212D10BF101001FFABA
:100A100080FB009D10E009B1089800E0129800F0FA
:100A20000AFB761CF6B2B6FBF7F007FB106090B13C
:100A3000641CE4B2082CD1D308F10100C0B20299C1
:100A400080468842C6D30AF1010080B203998246EB
:100A500088429ED386E70026EEE72DE9FF4F85B05A
:100A60000546139F002600908B46780700D0012092
:100A700000EBD7007843029004204FF0000A039067
:100A80008349079A0AEB0A1011F810301278934242
:100A90004DD101EB400001904178079840788142A8
:100AA00045D10BEB0700401E83B2E819401E82B20D
:100AB0005946284600F0D8FA002034E00198002476
:100AC00000EB0809149899F8021000284FF0010073
:100AD00000FA04F001EA000111D021B1594628467C
:100AE000089AFFF7F8FD6D1C0098ADB2281AB842BD
:100AF00012D10BF101001FFA80FB009D10E009B13B
:100B0000089800E0129800F096FA761CF6B2B6FB50
:100B1000F7F007FB106090B1641CE4B2082CD1D34D
:100B200008F10100C0B2029980468842C6D30AF19A
:100B3000010003991FFA80FA8A45A1D312E7002623
:100B4000EEE72DE9FF4F85B00546139F0026009084
:100B50008B46780700D0012000EBD7007843029045
:100B6000022003900020824600EB800101EBCA00C6
:100B70004749079A343911F81030127893424DD111
:100B800001EB40000190417807984078814245D1BF
:100B90000BEB0700401E83B2E819401E82B2594693
:100BA000284600F061FA002034E00198002400EBB0
:100BB0000809149899F8021000284FF0010000FA73
:100BC00004F001EA000111D021B159462846089AE3
:100BD000FFF781FD6D1C0098ADB2281AB84212D102
:100BE0000BF101001FFA80FB009D10E009B108988D
:100BF00000E0129800F01FFA761CF6B2B6FBF7F090
:100C000007FB106090B1641CE4B2082CD1D308F14A
:100C10000100C0B2029980468842C6D30AF10100A1
:100C200080B20399824688429ED39BE60026EEE777
:100C30002DE9FE4F9946DDE90D4517468A46804667
:100C40000C9E15E00C2C17D0102C23D0182C2BD078
:100C5000202C10D100964B463A4651464046CDE9ED
:100C60000145FFF70EFE08EB04001FFA80F8BF1CD9
:100C700038780028E6D183E500964B463A4651463F
:100C80004046CDE90145FFF75CFFECE706E10008CF
:100C9000EADF000800964B463A4651464046CDE909
:100CA0000145FFF7DAFEDEE700964B463A4651462D
:100CB0004046CDE90145FFF759FED4E72DE9FF4F46
:100CC00083B00746DDF8449000904FEA590A4FF090
:100CD00000085FEA4A7000D0012000EBDA0000FB58
:100CE00009F001900498203A4844401E83B207EB73
:100CF0000A0002F0FF0B401E82B23846049900F051
:100D0000B3F9002550E0B9F10C0F28D0B9F1100F5C
:100D10002BD0B9F1180F2CD0B9F1200F47D1984939
:100D200001EB8B100024465D129800284FF0010063
:100D300000FA04F000EA060021D020B13846069AF5
:100D40000499FFF7C8FC7F1C0098BFB2391A5145BF
:100D500024D10498009F401C80B2049022E089496D
:100D60000BEB4B0001EB8000DCE7874901EB0B103C
:100D7000D8E786490BEB4B0001EB0010D2E708B136
:100D8000069800E0109800F056F908F10100C0B292
:100D9000B0FBFAF280460AFB128048B1641CE4B250
:100DA000082CC1D36D1CADB201988542ABD365E56B
:100DB0004FF00008F6E72DE9FE4F9946DDE90D6793
:100DC00014468A460546DDF830800CE0CDF80080F8
:100DD0004B4651462846CDE90167FFF76FFF05EB0B
:100DE000560085B2641C2278002AEFD1C8E403467D
:100DF000012000E05843491EC9B2FBD270472DE9DB
:100E0000FF4F83B00027DDE911A81D4681464FEA58
:100E100058063C46BB462CE0281B401EC1B20A20A7
:100E2000FFF7E5FF0599B1FBF0F00A21B0FBF1F205
:100E300001FB120027B9691E8C4201DA58B1012763
:100E40003030C2B2CDE900A804FB069080B2CDF8E4
:100E500008B0109B08E0CDE900A804FB0690109BA9
:100E600080B2CDF808B020220499FFF727FF641C58
:100E7000E4B2AC42D0D301E52DE9FF4F83B0814607
:100E8000DDE911A71D467E084149104609F0BAFC6C
:100E900009F06CFC1FFA80FB002431E0281B401E87
:100EA000C1B20A20FFF7A3FFBBFBF0F00A21B0FBA1
:100EB000F1F201FB1208A81E844210D10022CDF8E5
:100EC00000A0CDE9017200FB069080B22E22109B9B
:100ED0000499FFF7F3FE641C6D1CE4B2EDB2002030
:100EE000CDF800A0CDE9017008F13000C2B204FBDA
:100EF000069080B2109B0499FFF7E0FE641CE4B2F8
:100F0000AC42CBD3BAE42DE9F0479846914601EBC9
:100F10000802521E93B200EB0902521E002492B244
:100F2000089F00F0A1F8002611E000250BE017F85B
:100F3000140000F07FF807EB4400407800F07AF8E6
:100F40006D1CADB2641C4545F1D3761CB6B24E455E
:100F5000EBD3BDE8F0872DE9F8431D4616460F4652
:100F60008046089C04F094FB2B46324639464046A6
:100F70000094FFF7C8FFBDE8F84304F0A3BB0000EE
:100F8000F6C70008C2AB000836B0000826B6000855
:100F90000000C84238B50121092000F0CCFF012132
:100FA000CC4800F06BFE4FF46C74ADF8004010209C
:100FB0008DF803000320C84D8DF8020069462846CD
:100FC00000F0D1FD2146284600F037FE4021ADF863
:100FD000001048218DF803106946284600F0C3FD33
:100FE00038BD2DE9F041BC4E05468021304600F069
:100FF00026FE00244FF40078B7153946304600F03D
:101000001EFE28064146304602D500F016FE01E0DD
:1010100000F015FE3946304600F00FFE6806641CED
:10102000050EE4B2082CE8D33046BDE8F04180213B
:1010300000F003BED5E710B50446000AFFF7D1FF64
:10104000E0B2BDE81040CCE770B5A34C05462021C6
:10105000204600F0F4FD2846FFF7C3FF2046BDE818
:101060007040202100F0E9BD2DE9F04107461C4603
:1010700016460D462A20FFF7E7FFFF1CB8B2FFF720
:10108000DAFFF61CB0B2FFF7D6FF2B20FFF7DCFF2C
:10109000AD1CA8B2FFF7CFFFA41CA0B2FFF7CBFF97
:1010A000BDE8F0412C20CFE710B5FFF773FF10210A
:1010B000894800F0C2FD642000F01EFB1120FFF7FC
:1010C000C3FF782000F018FBB120FFF7BDFF01201F
:1010D000FFF787FF2C20FFF784FF2D20FFF781FF0C
:1010E000B220FFF7B1FF0120FFF77BFF2C20FFF7B5
:1010F00078FF2D20FFF775FFB320FFF7A5FF012034
:10110000FFF76FFF2C20FFF76CFF2D20FFF769FF23
:101110000120FFF766FF2C20FFF763FF2D20FFF76C
:1011200060FFB420FFF790FF0720FFF75AFFC020B1
:10113000FFF78AFFA220FFF754FF0220FFF751FFBD
:101140008420FFF74EFFC120FFF77EFFC520FFF789
:1011500048FFC220FFF778FF0A20FFF742FF002078
:10116000FFF73FFFC320FFF76FFF8A20FFF739FF2C
:101170002A20FFF736FFC420FFF766FF8A20FFF71B
:1011800030FFEE20FFF72DFFC520FFF75DFF0E209B
:10119000FFF727FF3620FFF757FF7820FFF721FFE3
:1011A000E020FFF751FF0F20FFF71BFF1A20FFF78A
:1011B00018FF0F20FFF715FF1820FFF712FF2F2051
:1011C000FFF70FFF2820FFF70CFF2020FFF709FF94
:1011D0002220FFF706FF1F20FFF703FF1B20FFF76A
:1011E00000FF2320FFF7FDFE3720FFF7FAFE002067
:1011F000FFF7F7FE0720FFF7F4FE0220FFF7F1FEEE
:101200001020FFF7EEFEE120FFF71EFF0F20FFF793
:10121000E8FE1B20FFF7E5FE0F20FFF7E2FE172098
:10122000FFF7DFFE3320FFF7DCFE2C20FFF7D9FEAF
:101230002920FFF7D6FE2E20FFF7D3FE3020FFF740
:10124000D0FE3020FFF7CDFE3920FFF7CAFE3F2049
:10125000FFF7C7FE0020FFF7C4FE0720FFF7C1FE1F
:101260000320FFF7BEFE1020FFF7BBFE2A20FFF78A
:10127000EBFE0020FFF7B5FE0020FFF7B2FE0020D6
:10128000FFF7AFFE7F20FFF7ACFE2B20FFF7DCFE61
:101290000020FFF7A6FE0020FFF7A3FE0020FFF7C7
:1012A000A0FE9F20FFF79DFEF020FFF7CDFE01205E
:1012B000FFF797FEF620FFF7C7FE0020FFF791FE2D
:1012C0003A20FFF7C1FE0520FFF78BFEBDE8104076
:1012D0002920B9E600023000000C014030B587B08B
:1012E00001214FF4017000F026FE4FF4004000F0A1
:1012F000B6FD0820ADF8140000248DF8174005A9AC
:101300002D4800F030FC2D4D284600F0F7FF4FF43B
:101310006020CDE9020401208DF804408DF8100012
:1013200000948DF805406946284601F003F8012134
:10133000284601F027F8284601F041F8284601F038
:1013400043F80028FAD1284601F045F8284601F074
:1013500047F80028FAD107B030BD10B5174C014648
:1013600007230122204601F065F80121204601F003
:101370003EF80221204601F031F90028F9D020463C
:10138000BDE8104001F09AB82DE9F04100250E4665
:1013900007462C4608E03846FFF7DFFF05440520E6
:1013A00000F0AAF9641CE4B2B442F4D3B5FBF6F041
:1013B00080B2BDE8F0810000000801400024014037
:1013C00008B50121102000F0B6FD40F20F30ADF855
:1013D000000048208DF803006946444800F0C3FB34
:1013E00008BD2DE9F0410126414C404D77024FF4F4
:1013F000807808B1267001E02078E8B10121284604
:1014000000F007FCF8B10221284600F002FCD0B140
:101410000421284600F0FDFBA8B10821284600F071
:10142000F8FB80B13946284600F0F3FB58B141463D
:10143000284600F0EEFB30B10121284600F0E9FB20
:10144000012831D04FE00A2000F056F9002020702A
:101450000121284600F0DDFBC8B10221284600F03A
:10146000D8FBB8B10421284600F0D3FBA0B1082175
:10147000284600F0CEFB88B13946284600F0C9FB6B
:1014800070B14146284600F0C4FB58B12BE0012062
:10149000BDE8F0810220FBE70320F9E70420F7E72D
:1014A0000520F5E70620F3E70221284600F0B1FB0E
:1014B000012818D10421284600F0ABFB012812D1E5
:1014C0000821284600F0A5FB01280CD13946284602
:1014D00000F09FFB012806D14146284600F099FB09
:1014E000012800D126700020D2E700000010014042
:1014F0001400002038B50121102000F01CFDC02090
:10150000ADF8000010208DF8030003200E4C8DF87C
:1015100002006946204600F026FB4021204600F0EC
:101520008EFB8021204600F08AFB38BD0748012150
:10153000C0F89811C0F89C11704704480021C0F809
:101540009811C0F89C117047001001400000224221
:1015500030B585B00121042000F0EDFC01214807E1
:1015600000F0F2FC1020ADF8100000248DF81340BC
:1015700003200F4D8DF8120004A9284600F0F3FA5D
:101580001021284600F059FB0220CDE902400094CA
:1015900069460194002001F055F80121002001F076
:1015A00069F80021082001F09BF805B030BD00006B
:1015B000000801407FB50D4604460121022000F0DD
:1015C000C3FCADF80440ADF800500024274DADF841
:1015D0000640ADF802406946284601F03DF9012277
:1015E0001146284601F0F5FB1D218DF80C108DF8F1
:1015F0000D4003208DF80E0001208DF80F0003A888
:1016000000F007FA0121284601F0CEFB7FBD10B59E
:10161000164C0121204601F0F0FD002825D0144B86
:1016200044F67F105A88824209D20120187011486E
:10163000815C521C5A80082001F052F80FE0002013
:101640001870588002460121204601F0C2FB00219B
:10165000204601F0A9FB0021084601F00BF82046C6
:10166000BDE81040012101F0D4BD10BD00040040D0
:101670001600002062DB020810B503F0B1F9012862
:1016800003D0BDE8104004F02EB810BD10B5042002
:1016900000F0FFF92C482D492D4A0068B0FBF1F30A
:1016A000B0FBF1F14FF47A70414313700120508088
:1016B0004FF0E020026942F00202026141610169DB
:1016C00041F00101016110BD70B54FF0E02500212E
:1016D0006C691F4AAB6912785043AA699A42FCD0E0
:1016E00002D2A3EB020302E0A4EB02063344194446
:1016F00013468142F1D370BD70B5044603F070F912
:1017000001280CD0124D6888844203D3B4FBF0F05A
:1017100002F03EFD6888B4FBF0F100FB11444FF489
:101720007A706043BDE87040CEE770B5054600248E
:101730004FF47A7603E03046FFF7C6FF641CAC42F4
:10174000F9D370BD704700000000002040420F0038
:101750001A0000204FF4407000F056B938B5FEF77B
:10176000F1FEFEF709FF4FF4407000F04DF9FFF76E
:101770008DFF9B214720FFF71DFFFFF7E9FE344C4B
:1017800000202070FFF7B6FEFFF7D0FE3220FFF7F3
:10179000B3FFFFF7D2FE207868B92E4C0122114624
:1017A000204601F016FB0121204601F0FDFA01213F
:1017B000002000F05FFF4FF47A70FFF79DFFFEF707
:1017C0003DFEFEF7EDFEFFF789FDFFF7F9FD04F0A2
:1017D00012FF0A20FFF790FF07F01CF9FEF7D4FE76
:1017E0004FF4E13000F04CF8FFF75EFC4FF6FF706D
:1017F0008023002100901A460846FEF74DFF164848
:10180000502300901A4600211820FFF77CFB134854
:1018100000901223462254210620FFF774FB104843
:101820000090122346226A210620FFF76CFB0D4828
:1018300000901223282254215220FFF764FB0A480B
:101840000090122328226A215220FFF75CFB38BD4A
:1018500016000020000400400AE200080A140108F3
:10186000E21D0108BA270108FA320108704722492F
:101870000A885206FCD5204AC1B2121D1180704759
:1018800030B50446012185B0C80400F05DFB01219C
:10189000102000F050FB4FF48061ADF810101821BB
:1018A0008DF813100320154D8DF8120004A9284659
:1018B00000F059F9E914ADF8101004208DF8130068
:1018C00004A9284600F04FF90020ADF80400009468
:1018D000ADF80600ADF80800ADF80C000C20064C81
:1018E000ADF80A006946204600F0A4FB012120461D
:1018F00000F013FC05B030BD004C0040001001406A
:1019000010B5042000F0C5F82C482D492D4A006878
:10191000B0FBF1F3B0FBF1F14FF47A704143137077
:10192000012050804FF0E020026942F00202026183
:101930004161016941F00101016110BD70B54FF0D5
:10194000E02500216C691F4AAB6912785043AA69EF
:101950009A42FCD002D2A3EB020302E0A4EB0206FF
:101960003344194413468142F1D370BD70B5044627
:1019700003F036F801280CD0124D6888844203D356
:10198000B4FBF0F002F004FC6888B4FBF0F100FB5B
:1019900011444FF47A706043BDE87040FFF794BE85
:1019A00070B5054600244FF47A7603E03046FFF721
:1019B0008BFE641CAC42F9D370BD00000000002017
:1019C00040420F0024000020094880470948004792
:1019D000FEE7FEE7FEE7FEE7FEE7FEE7FEE7FEE7DF
:1019E000FEE7FEE704480549054A064B704700003C
:1019F000850300083101000818A9002018AF002055
:101A000018AB002018AB002028490843284908607B
:101A1000704730B50F23C27801780125F2B1244A0E
:101A2000126801F1E02102F4E062C2F5E062120AFC
:101A3000C2F10404D3404278A24084781C4014438D
:101A4000220181F80024007800F01F018D40400938
:101A5000800000F1E020C0F8005130BD01F01F000F
:101A600085404809800000F1E020C0F8805130BD79
:101A7000104A114001430E48001F016070470C4A94
:101A8000121D0029116801D0014300E0814311605B
:101A900070474FF0E0210428086903D020F00400CB
:101AA0000861704740F00400FAE700000000FA0502
:101AB0000CED00E080FFFF1F8F4910B5884206D172
:101AC0000121042000F049FA002104203BE08B4969
:101AD000884206D10121082000F03FFA00210820A9
:101AE00031E08749884206D10121102000F035FA03
:101AF0000021102027E08349884206D101212020BF
:101B000000F02BFA002120201DE07F49884206D1F9
:101B10000121402000F021FA0021402013E07B4900
:101B2000884206D10121802000F017FA0021802090
:101B300009E0774988420AD184150121204600F046
:101B40000CFA00212046BDE8104000F006BA10BD96
:101B500010B50121084600F000FA0021BDE8104050
:101B6000012000F0FAB9F0B5CC78002204F00F03A0
:101B7000E40601D58C7823430C784FF00F0C14F059
:101B8000FF0F4FF0010E1BD005680E880EFA02F40D
:101B90002640A64210D196000CFA06F725EA070760
:101BA00003FA06F5CE783D43282E02D0482E02D007
:101BB00002E0446100E00461521C082AE5D305609C
:101BC0000A88FF2A1CD94468002202F108060EFA8E
:101BD00006F50E882E40AE420ED196000CFA06F79E
:101BE000BC4303FA06F7CE783C43282E00D145616A
:101BF000CE78482E00D10561521C082AE5D34460F6
:101C0000F0BD4FF6FF710180022181700421C17087
:101C100070470246002092680A4200D001207047B7
:101C2000806880B2704702460020D2680A4200D025
:101C300001207047C06880B2704701617047416100
:101C400070470AB10161704741617047C1607047D8
:101C500041F480328261816182618169806970476B
:101C60002C4B10B51A684FF68074224042EA0010DF
:101C70000843186010BD2849C8617047F0B5254C6D
:101C8000002801DAE36900E06368450D2E0185B2A2
:101C9000C0F30157B540C0F30342032F05D0C6027D
:101CA0000AD503269640B34307E023F070626368C9
:101CB00023F07063636002E0AB4343F0706201B1F4
:101CC0002A43002801DAE261F0BD6260F0BD10B580
:101CD0008A0721F003040F49120F21440F238C6857
:101CE00093409C438C608B68904003438B6010BD95
:101CF0000949C1F8DC00704700080140000C0140B0
:101D0000001001400014014000180140001C014077
:101D1000002001400000014000002042A548016869
:101D200041F0010101604168A34A1140416001682E
:101D3000A24A11400160016821F4802101604168DC
:101D400021F4FE0141604FF41F0181607047994901
:101D50000A6822F480320A600A6822F480220A604B
:101D6000B0F5803F07D0B0F5802F03D1086840F46C
:101D7000A02008607047086840F48030F9E7034607
:101D8000002059098B4A01290AD002290AD0516A38
:101D900003F01F02012393400B4200D00120704743
:101DA0001168F5E7116AF3E718B500204FF4A06455
:101DB00000903120FFF7E3FF0099491C0091A142F8
:101DC00001D00028F5D03120FFF7D9FF002800D03E
:101DD000012018BD774A116821F0F80141EAC000DE
:101DE00010607047764908607047724B5A68084324
:101DF00022F47C121043586070477149086670479E
:101E00006C4A516821F003010143516070476948F1
:101E1000406800F00C007047664A516821F0F001FC
:101E2000014351607047634A516821F4E061014306
:101E3000516070475F4A516821F4605141EAC00027
:101E4000506070475B4A0029517A01D0014300E09D
:101E50008143517270475A49C1F8D8007047554ABA
:101E6000516821F4404101435160704751490022BB
:101E700081F8202081F82020012802D0042802D1F6
:101E8000052081F8200070474E4908607047494995
:101E90000A6A02430A6270474A4944390860704737
:101EA00030B5444A5168484B11F00C0103D0042965
:101EB00001D0082901D0036012E05168536801F491
:101EC00070114FF0020413F4803F04EB914102D0F3
:101ED00053689B0301D53D4B00E03B4B59430160E8
:101EE00051680F2303EA1111394B5C5C0168E14032
:101EF00041605468072505EA14241C5D21FA04F4A6
:101F00008460546805EAD4241B5DD940C1605268DE
:101F1000032303EA92322E4B1B1F9A5CB1FBF2F1B2
:101F2000016130BD234A0029516901D0014300E01D
:101F30008143516170471F4A0029916901D00143D3
:101F400000E08143916170471A4A0029D16901D0AC
:101F5000014300E08143D1617047164A0029D168EE
:101F600001D0014300E08143D1607047114A00294C
:101F7000116901D0014300E08143116170471149AB
:101F80004039086070470E49C86470470949C871F4
:101F900070470848416A41F0807141627047054AC4
:101FA0000146002092680A4200D001207047014992
:101FB00088727047001002400000FFF8FFFFF6FE35
:101FC000000042428004424200127A0000093D00B3
:101FD0002C000020C44910B588420AD101218C038D
:101FE0002046FFF7BAFF2046BDE810400021FFF76A
:101FF000B4BFBE49884202D101214C0410E0BC4963
:10200000884202D101218C040AE0BA49884202D1F7
:102010000121CC0404E0B84988420AD101210C0511
:102020002046FFF7A3FF2046BDE810400021FFF740
:102030009DBF10BD30B50446008A85B00D464CF6F4
:10204000FF710840E98801432182A0894EF6F3110F
:102050000840A9882A8911436A8902431143A18152
:10206000A08A4FF6FF410840A9890143A182684632
:10207000FFF716FF9C48844201D1039800E00298C4
:10208000A189090400EBC00101EB0010296801D50A
:10209000490000E08900B0FBF1F06422B0FBF2F1EE
:1020A00009010B096FF018056B4300EB8300A3894E
:1020B0001D044FF0320306D503EBC000B0FBF2F075
:1020C00000F0070005E003EB0010B0FBF2F000F0B9
:1020D0000F000843208105B030BD4FF41651016058
:1020E00000218180C18001810C2242818181704761
:1020F00010B5028A4FF2FF031A400B884C88234325
:102100008C88C9880C4323431343038210BD0021EC
:10211000018041808180C18070470029818902D07F
:1021200041F4005101E021F400518181704710B564
:10213000C1F3421301F01F040121A140012B07D07C
:10214000022B07D01430002A026805D00A4304E0AD
:102150000C30F8E71030F6E78A43026010BD002A21
:10216000828A01D00A4300E08A4382827047028A51
:1021700022F00F020282028A0A4302827047828999
:1021800022F40062828182890A4382817047002999
:10219000818902D041F0020101E021F00201818138
:1021A0007047028A22F020020282028A0A430282D7
:1021B00070470029018A02D041F4804101E021F4F6
:1021C000804101827047C1F3080181807047808897
:1021D000C0F308007047818941F001018181704797
:1021E000028BD2B20283028B42EA01210183704743
:1021F000028B02F47F420283028B0A430283704700
:102200000029818A02D041F0200101E021F0200163
:10221000818270470029818A02D041F0100101E0DB
:1022200021F01001818270470029818A02D041F09B
:10223000080101E021F008018182704700298189AD
:1022400002D041F4004101E0C1F30E0181817047E9
:102250000029818A02D041F4006101E021F400618B
:1022600081827047828A22F004028282828A0A4333
:10227000828270470029818A02D041F0020101E088
:1022800021F00201818270470246002012880A4232
:1022900000D001207047C9430180704770B501F03C
:1022A0001F0501260024C1F3421306FA05F2012B93
:1022B0000FD0022B0FD0838A4FEA112100881342DE
:1022C00006FA01F600EA060001D000B1012420461A
:1022D00070BD8389F0E7038AEEE70A0A0121914085
:1022E000C9430180704700000038014000440040AD
:1022F00000480040004C004000500040C54910B567
:10230000884202D1012144150AE0C349884202D122
:102310000121041504E0C14988420AD10121CC03FE
:102320002046FFF71AFE2046BDE810400021FFF7C7
:1023300014BE10BD10B54268B94B0C791A400B6839
:1023400042EA0422134343608268B64B1A40D1E943
:10235000024323434C7942EA440213438360C26A36
:10236000097C22F47002491EC9B242EA0151C162DD
:1023700010BD00210160017141718160C1600121C6
:10238000017470470029816802D041F0010101E029
:1023900021F00101816070470029816802D041F479
:1023A000807101E021F4807181607047002A4268E9
:1023B000C9B201D00A4300E08A4342607047816895
:1023C00041F00801816070470146002089680907D3
:1023D00000D501207047816841F004018160704799
:1023E000014600208968490700D50120704700296F
:1023F000816802D041F4A00101E021F4A0018160D4
:102400007047014600208968490200D501207047C5
:102410004268491E22F4604242EA413141607047FD
:102420000029416802D041F4006101E021F400611B
:102430004160704770B5072609290AD9C568A1F11E
:102440000A0404EB4404A640B543A3401D43C56001
:1024500007E0056901EB4104A640B543A3401D43D5
:1024600005611F23072A09D2446B521E02EB820228
:1024700093409C4391400C43446370BD0D2A09D2A4
:10248000046BD21F02EB820293409C4391400C43A9
:10249000046370BDC46A0D3A02EB820293409C4310
:1024A00091400C43C46270BD0029816802D041F4A0
:1024B000801101E021F4801181607047C06C80B20E
:1024C000704754484C30006870470029416802D07A
:1024D00041F4806101E021F480614160704700298E
:1024E000416802D041F4805101E021F48051416003
:1024F0007047826822F4E0420A43826070470029F4
:10250000816802D041F4004101E021F40041816082
:1025100070470029816802D041F4021101E021F4E2
:10252000021181607047014600208968890200D548
:102530000120704770B5072609290AD9C568A1F19D
:102540000A0404EB4404A640B543A3401D43C56000
:1025500007E0056901EB4104A640B543A3401D43D4
:102560000561836BC3F30154121B921C02EB8202C0
:102570001F249440A34391400B43836370BD826B3F
:10258000491E22F4401242EA01518163704708B5A6
:1025900008440090026008BD08B508442830009047
:1025A000006880B208BD42681F4B1A400A4342606F
:1025B0007047416282627047426822F01F020A43FC
:1025C00042607047134908310028086802D040F47F
:1025D000000001E020F4000008607047024600207F
:1025E00012680A4200D001207047C9430160704759
:1025F00010B50246002054680B0AC9B20C4011689D
:10260000194202D0002C00D0012010BD6FEA112128
:10261000016070470024014000280140003C014057
:10262000FFFEF0FFFDF7F1FFFFFD3FFF10B50121B9
:102630004C072046FFF79AFC2046BDE810400021D9
:10264000FFF794BC30B5374C236840F6FE728240E9
:102650009343D1E900252A43D1E902510D432A438E
:1026600082401A43226030BD0021016041608160D8
:10267000C16070472B4B01228240186809B110439A
:1026800000E0904318607047264B9A148240186807
:1026900009B1104300E0904318607047214B1B1DA7
:1026A0000209012090400029196801D0014300E08F
:1026B0008143196070471B49091D0028086802D032
:1026C00040F0030001E020F0030008607047154B64
:1026D000814018680AB1084300E0884318607047D9
:1026E000104A08B5104408300090016008BD0D4A3A
:1026F00008B5104414300090016008BD082805D0CA
:1027000042EA0141074A10440162704742EA01214E
:10271000F8E7044908B501EB90002C300090006800
:1027200080B208BD00740040F94910B5884202D15A
:102730000121C41486E0B0F1804F09D0F5498842E8
:102740000DD101210220FFF711FC0021022064E0DD
:1027500001210846FFF70AFC002101205DE0EE4957
:10276000884206D101210420FFF700FC002104204B
:1027700053E0EA49884206D101210820FFF7F6FB21
:102780000021082049E0E649884206D101211020B5
:10279000FFF7ECFB002110203FE0E249884206D120
:1027A00001212020FFF7E2FB0021202035E0DE4957
:1027B000884202D10121441444E0DC49884202D11C
:1027C0000121CC043EE0DA49884202D101210C0506
:1027D00038E0D849884202D101214C0532E0D6497F
:1027E000884206D101214020FFF7C0FB0021402094
:1027F00013E0D249884206D101218020FFF7B6FBC1
:102800000021802009E0CE4988420AD184150121A7
:102810002046FFF7ABFB00212046BDE81040FFF744
:10282000A5BBC849884202D101210C040AE0C6496F
:10283000884202D101214C0404E0C44988420AD1F3
:1028400001218C042046FFF788FB2046BDE810409C
:102850000021FFF782BB10BD30B50288AC4CB24DF1
:10286000A0420DD0A8420BD0B0F1804F08D0A94BA8
:10287000984205D0A84B984202D0A84B984203D169
:1028800022F070034A881A43A54B984206D0A54B04
:10289000984203D022F44073CA881A4302808A887F
:1028A00082850A880285A0420AD0A84208D0A54A9B
:1028B000904205D0A44A904202D0A44A904201D14D
:1028C000097A01860121818230BD30B5028C22F067
:1028D00001020284028C8388048B22F0020224F01D
:1028E00073050C882C430D8915434A882A43884D6B
:1028F000A8420BD08C4DA84208D0924DA84205D0DA
:10290000914DA84202D0914DA8420DD122F0080568
:102910004A8923F440732A4322F004058A882A4313
:102920008D891D43CB892B4383800483C98881868D
:10293000028430BD70B5028C22F010020284028C39
:102940008388048B0D8824F4E6464FF6FF7404EA6E
:10295000052535430E8922F0200204EA06161643A7
:102960004A8804EA02123243694EB04202D06E4EE7
:10297000B04215D122F080064A8923F4406304EA6C
:102980000212324322F040068A8804EA02123243DD
:102990008E8904EA86061E43CB8904EA8303334307
:1029A00083800583C9880187028470BD70B5028C5D
:1029B00022F480720284028C8388848B0D8824F038
:1029C000730425430E894FF6FF7422F4007204EA63
:1029D000062616434A8804EA022232434C4EB0428D
:1029E00002D0514EB04215D122F400664A8923F438
:1029F000405304EA0222324322F480668A8804EAC1
:102A0000022232438E8904EA06161E43CB8904EA69
:102A10000313334383808583C9888187028470BD13
:102A200070B5028C22F480520284058C8288838BDC
:102A30000C8823F4E6464FF6FF7303EA042434437C
:102A400025F400560D8903EA053535434E8803EA1F
:102A500006362E432E4DA84202D0334DA84205D152
:102A600022F480458A8903EA82122A438280848381
:102A7000C988A0F84010068470BD828B22F44062A1
:102A80008283828B4FF6FF7303EA01210A4382831C
:102A90007047828B22F00C028283828B0A438283EE
:102AA0007047028B22F440620283028B4FF6FF7361
:102AB00003EA01210A4302837047F0B5048C24F035
:102AC00010040484078B048C4FF6FF7527F47347BA
:102AD00005EA03333B4305EA02221A430C4B05EA9D
:102AE000011698420ED0104B98420BD0B0F1804F97
:102AF00008D0084B984205D0074B984202D0074BAC
:102B0000984225D124F02001314341F0100124E006
:102B1000002C01400004004000080040000C004070
:102B2000001000400014004000340140004C0140FF
:102B3000005001400054014000180040001C0040BB
:102B40000020004000400140004401400048014096
:102B500024F0A0030B4343F0100102830184F0BD75
:102B6000028B22F00C020283028B0A43028370471D
:102B700070B5048C24F001040484058B048C4FF69A
:102B8000FF7606EA0313134325F0F305F84A2B43B7
:102B900090420ED0F74A90420BD0B0F1804F08D04F
:102BA000F54A904205D0F54A904202D0F44A90424C
:102BB00002D124F0020201E024F00A020A4342F0AA
:102BC00001010383018470BD2DE9F84F0D460446D1
:102BD0000888E74FDFF89CC3DFF89C83DFF89C93FD
:102BE0004988AA882B894FF0804A48B304282FD0FF
:102BF0004FF6FF760828934632D0208C9E4620F46C
:102C000080502084A38B208C06EA0132009223F4AA
:102C1000734306EA0B221A4306EA0E331343BC42FF
:102C20000AD0644508D0544506D0444504D04C45EC
:102C300002D0D34A944242D120F40050009940E09F
:102C40002046FFF795FFE9882046BDE8F84F87E763
:102C50002046FFF732FFE9882046BDE8F84F20E71D
:102C6000208C20F480702084B4F81CE0208C06EACC
:102C7000031306EA01222EF0F30E43EA0B0343EAA4
:102C80000E030092BC420AD0644508D0544506D0D9
:102C9000444504D04C4502D0B94A944203D120F4B3
:102CA0000070009901E020F42060084340F4807037
:102CB000A3832084E9882046BDE8F84FE9E620F4A4
:102CC0000240084340F48050A3832084E9882046D2
:102CD000BDE8F84FD1E62DE9F0410C4600264988C1
:102CE0000746012501B90226A288012A00D1022542
:102CF000208823890028384610D0FFF7DEFEE188BF
:102D00003846FFF7CEFE23892A4631463846FFF77C
:102D10002FFFE1883846BDE8F04121E7FFF728FFA3
:102D2000E1883846FFF71CFF23892A46314638469A
:102D3000FFF7C3FEE1883846BDE8F041B1E610B5C3
:102D40000A884B88CC881A438B8823431A430B8903
:102D50001A434B8989891A430A43A0F8442010BDBD
:102D60004FF6FF71818000210180C1804180017296
:102D700070470021018041808180C18001814181B3
:102D80008181C181704700210180418001228280C0
:102D9000C180018170470021018041808180C18014
:102DA00001814181818170470029018802D041F071
:102DB000010101E021F0010101807047002930F894
:102DC000441F02D041F4004101E0C1F30E01018033
:102DD0007047002A828901D00A4300E08A43828139
:102DE0007047818270471143A0F848107047002A4D
:102DF000828901D00A4300E08A43828170470189B9
:102E000021F0070101817047028922F070020A4314
:102E10000281704700B50346FFF7F6FF188940F0BE
:102E20000700188100BD70B516460D46602904469E
:102E30004FF0010231460AD0FFF79AFE294620469C
:102E4000FFF7E2FF208940F00700208170BDFFF707
:102E500034FEF3E730B504894FF6FF7505EA032326
:102E60001343E4B20B432343038130BD10B5044642
:102E7000FFF7F0FF208940F07700208110BD10B5EA
:102E80000446FFF7E7FF208940F48040208110BD11
:102E9000018582827047028822F070020A43028014
:102EA000704770B50589048B068C25F007050D4326
:102EB0004FF6FC410C4040F201110C434FF6FF71FC
:102EC00001EA031126F022061143314305810483F0
:102ED000018470BD028B22F070020A4302837047A6
:102EE000028B4FF6FF7322F4E04203EA0121114303
:102EF00001837047828B22F070020A4382837047FD
:102F0000828B4FF6FF7322F4E04203EA0121114362
:102F1000818370470029018802D041F0800101E0DF
:102F200021F08001018070470029818802D041F0A2
:102F3000040101E021F004018180704700298188AB
:102F400002D041F0080101E021F0080181807047C2
:102F50000029818802D041F0010101E021F0010146
:102F600081807047028B22F008020A430283704777
:102F7000002C0140003401400004004000080040E3
:102F8000000C0040028B4FF6FF7322F4006203EA4C
:102F9000012111430183EAE7828B22F008020A43F0
:102FA0008283E4E7828B4FF6FF7322F4006203EA28
:102FB000012111438183DAE7028B22F004020A43E4
:102FC0000283D4E7028B4FF6FF7322F4806203EA98
:102FD000012111430183CAE7828B22F004020A43D4
:102FE0008283C4E7828B4FF6FF7322F4806203EA88
:102FF000012111438183BAE7028B22F080020A4348
:103000000283B4E7028B4FF6FF73C2F30E0203EAAA
:10301000012111430183AAE7828B22F080020A4337
:103020008283A4E7828B4FF6FF73C2F30E0203EA9A
:103030000121114381839AE7028C22F002020A43A4
:10304000028494E7028C22F008020A4302848EE78D
:10305000028C4FF6FF7322F0200203EA01111143A4
:10306000018484E7028C4FF6FF7322F0800203EAAA
:103070000111114301847AE7028C4FF6FF7322F4A9
:10308000007203EA01211143018470E7028C4FF6BC
:10309000FF7322F4006203EA01211143018466E711
:1030A000028C4FF6FF7322F4005203EA0131114300
:1030B00001845CE710B50123048C8B409C4304849D
:1030C000038C8A401343038410BD10B50423048C81
:1030D0008B409C430484038C8A401343038410BDBB
:1030E00030B50124058C00F118038C40A5430584FC
:1030F00089B108290FD0091FC1F34E001844016897
:1031000021F4E041016001684FF6FF7303EA0222F7
:103110001143016030BD03EB5100016821F07001E3
:1031200001600168F4E70029018802D041F0020142
:1031300001E021F00201018019E70029018802D095
:1031400041F0040101E021F0040101800FE70029B2
:10315000818802D041F0800101E021F0800181806E
:1031600005E7028822F00802028002880A430280F2
:10317000FDE6828822F07002828082880A43828083
:10318000F5E6028922F00702028102890A430281E0
:10319000EDE6028922F08002028102890A4302815F
:1031A000E5E68184E3E68185E1E68186DFE6018765
:1031B000DDE68187DBE6A0F84010D8E6028822F43D
:1031C0004072028002880A430280D0E6808ECEE6FA
:1031D000008FCCE6808FCAE6B0F84000C7E6808C4E
:1031E000C5E6008DC3E602460020128A0A4200D0DE
:1031F0000120BCE6C9430182B9E602460020138AD9
:1032000092890B4202EA010202D0002A00D001207A
:10321000ADE6C9430182AAE600F108014FF0FF3292
:10322000C0E90112C1600161002101607047002105
:103230000161704742684A6093688B609368596087
:10324000916008610168491C0160704730B50C68E5
:10325000621C02D000F1080202E0026904E01A4692
:1032600053681D68A542FAD953684B6099608A601B
:10327000516008610168491C016030BDD0E901322C
:1032800001699A60D0E901235A604A68824201D1FB
:1032900082684A60002202610868401E0860704728
:1032A00070B50D46040005D140F21B12F2A1F7A043
:1032B00005F0DCFC02F0ECF9D4E90F20216802FBF8
:1032C000001161600021A1632168A1600A46D4E970
:1032D0000F01401E00FB0121E16021464FF0FF304D
:1032E00001F8440F487004F110004DB1FFF794FF4E
:1032F00004F12400FFF790FF02F0E4F9012070BD13
:1033000021690029F8D001F0A3FA0028F4D0E3499C
:103310004FF080500860BFF34F8FBFF36F8FEBE724
:103320002DE9F04117460E46050005D14FF4C47251
:10333000D1A1D6A005F09AFCBEB105FB06F0543031
:1033400002F056FA04000ED004F154007EB1206061
:10335000C4E90F5620460121FFF7A2FF84F8507000
:1033600000212046A164BDE8F0810020E7E7246049
:10337000EEE72DE9F041856B174604460026026C06
:1033800082B1C7B1E06805F09AFDE168206C091AC6
:10339000E1602268914202D26168081AE060022F5F
:1033A00016D017E02068A8B9606801F062FB0646F5
:1033B000002060600EE0A06805F081FD216CA0682F
:1033C0000844A0606168884204D32068A06001E0DE
:1033D00005B16D1E6D1CA5633046C4E72DE9F341B0
:1033E0000F4600980026846C2CB940F6CE12A2A19C
:1033F000A6A005F03BFCA06BE16B884205D340F62C
:10340000CF129DA1A1A005F031FCA06BE16B884219
:103410000CD294F945503A4669462046FFF7A9FF79
:103420000646681C05D06D1C84F845503046BDE842
:10343000FC81606A0028F9D004F1240001F008FA48
:103440000028F3D00126F1E72DE9F041044602F00F
:103450001FF994F9455004F1240610E0A06C20B146
:1034600000212046FFF7BAFF04E0606A48B1304609
:1034700001F0EEF908B101F0A4FA6D1E6DB2002D55
:10348000ECDC4FF0FF3684F8456002F01BF902F0E7
:10349000FFF894F9445004F1100709E0206948B19D
:1034A000384601F0D5F908B101F08BFA6D1E6DB206
:1034B000002DF3DC84F84460BDE8F04102F002B96D
:1034C0002DE9FF4F83B099468B4604004FF000066C
:1034D00005D140F2D92268A16CA005F0C7FBBBF171
:1034E000000F07D1206C28B140F2DA2262A167A058
:1034F00005F0BCFBB9F1020F08D1E06B012805D043
:1035000040F2DB225CA161A005F0B0FB01F068FA9B
:1035100038B9059828B140F2DE2257A15BA005F02A
:10352000A5FB4FF0000A4FF08057DFF8708102F0E2
:10353000AFF8A06BE16B884206D3B9F1020F03D05C
:10354000059800B316B325E04A4659462046FFF7D2
:1035500010FFA16C21B149462046FFF73FFF05E06F
:10356000616A19B104F1240001F072F928B1C8F8B8
:103570000070BFF34F8FBFF36F8F02F0A3F80120ED
:1035800007B0BDE8F08F02F09DF821E0684601F039
:10359000CEF9012602F096F800F09BFD02F078F8D3
:1035A00094F94400401C01D184F844A094F94500EA
:1035B000401C01D184F845A002F084F805A96846B2
:1035C00001F0C6F930B12046FFF73EFF00F0F3FCF2
:1035D0000020D5E702F05CF8A06BE16B884201D1D6
:1035E000012500E0002502F06DF895B104F110000E
:1035F000059901F0D4F82046FFF726FF00F0DBFC28
:10360000002894D1C8F80070BFF34F8FBFF36F8FBD
:103610008DE72046FFF718FF00F0CDFC87E710B5D7
:10362000024600210120FFF77BFE040007D00021A5
:10363000416001600B460A46C160FFF741FF20462A
:1036400010BD10B5040005D140F241220AA10FA01F
:1036500005F00CFB01F0C1F96168884220D1E068F7
:10366000401EE06005D100231A4619462046FFF7A8
:1036700027FF012010BD00002E2E5C4672656552AA
:10368000544F535C71756575652E63004572726F9A
:10369000723A25732C25640D0A00000004ED00E049
:1036A0000020E7E730B4026C0B46002A0BD0C1685B
:1036B0001144C1604468A14201D30168C16030BCBB
:1036C000184605F0FCBB30BC70472DE9FF4F83B0B6
:1036D0009B468A4604004FF0000607D140F2DC42C8
:1036E000AFF26C01AFF25C0005F0C0FABAF1000F66
:1036F00009D1206C38B140F2DD42AFF28401AFF263
:10370000740005F0B3FA01F06BF948B9059838B1C7
:103710004FF49C62AFF2A001AFF2900005F0A6FA60
:103720004FF000094FF08057DFF8188601F0B0FF26
:10373000A56B35B351462046E668FFF7B3FFBBF1F2
:10374000000F11D0E660606A50B104F1240001F06E
:103750007FF828B1C8F80070BFF34F8FBFF36F8FA9
:1037600001F0B0FF01200BE76D1EA563206810B9C2
:1037700001F02FFA606020690028F1D004F11000F8
:10378000E5E7059808B11EB106E001F09BFF27E0D0
:10379000684601F0CCF8012601F094FF00F099FC96
:1037A00001F076FF94F94400401C01D184F8449064
:1037B00094F94500401C01D184F8459001F082FF46
:1037C00005A9684601F0C4F8002820460AD0FFF792
:1037D0003BFE00F0F0FB204600F0A6FA0028A5D042
:1037E0000020CDE600F0A0FAD8B1206830B901F091
:1037F0004FFF606801F0FFF801F064FF04F124005E
:10380000059900F0CCFF2046FFF71EFE00F0D3FB29
:1038100000288BD1C8F80070BFF34F8FBFF36F8FB4
:1038200084E72046FFF710FE00F0C5FB7EE770B589
:103830000D46040007D14FF41E72AFF2C411AFF26F
:10384000B41005F013FA01F0C8F86168884204D199
:10385000E068401CE060012070BD00232A46194644
:103860002046FFF732FF0028F6D0E168491CE160EE
:1038700070BD70B50C46050007D140F2BD22AFF215
:103880000821AFF2F81005F0F1F9AC4207D940F287
:10389000BE22AFF21C21AFF20C2005F0E7F90222A4
:1038A00000212846FFF73CFD002800D0846370BD4E
:1038B0002DE9F047984615468946040007D140F2A5
:1038C0009F32AFF24C21AFF23C2005F0CFF9B9F1B5
:1038D000000F09D1206C38B14FF46872AFF2682143
:1038E000AFF2582005F0C2F9B8F1020F0AD1E06B2F
:1038F000012807D040F2A132AFF28421AFF2742048
:1039000005F0B4F901F003FF5020EFF3118780F3C5
:103910001188BFF34F8FBFF36F8FA06BE16B8842AD
:1039200007D3B8F1020F04D0002087F31188BDE857
:10393000F08794F94560424649462046FFF719FD55
:10394000701C04D0761C84F845600120EDE7A06C63
:10395000012620B141462046FFF740FD06E0606A9F
:103960000028F2D004F1240000F072FF0028ECD00F
:10397000002DEAD02E60E8E72DE9F0410D46040065
:1039800007D140F23C42AFF21031AFF2003005F007
:103990006DF9206C38B14FF48862AFF22431AFF288
:1039A000143005F063F9206848B9606838B140F216
:1039B0004542AFF23C31AFF22C3005F057F901F03F
:1039C000A6FE5020EFF3118680F31188BFF34F8FCE
:1039D000BFF36F8FA16BE06B88421FD994F945004C
:1039E000491CA163411C04D0401C84F845000120FF
:1039F00015E0A06C012720B100212046FFF7EEFC66
:103A000006E0606A0028F2D004F1240000F020FFF4
:103A10000028ECD0002DEAD02F60E8E7002086F3E4
:103A20001188A0E42DE9F04790468946040007D1AB
:103A30004FF4B462AFF2C031AFF2B03005F016F916
:103A4000B9F1000F09D1206C38B140F2A152AFF2A8
:103A5000D831AFF2C83005F009F901F058FE502016
:103A6000EFF3118780F31188BFF34F8FBFF36F8F90
:103A7000A66BF6B194F9445049462046FFF712FE72
:103A8000761EA663681C04D06D1C84F84450012087
:103A900010E020690028FAD004F1100000F0D8FEF0
:103AA0000028F4D0B8F1000FF1D00121C8F80010BF
:103AB000EDE7002087F3118839E72DE9F0410E4644
:103AC000040007D140F2FC52AFF25441AFF244403F
:103AD00005F0CCF84EB9206C48B140F2FD52AFF27F
:103AE0006841AFF2584005F0C1F8206C38B940F297
:103AF000FE52AFF27C41AFF26C4005F0B7F801F036
:103B000006FE5020EFF3118580F31188BFF34F8F2D
:103B1000BFF36F8FA06B30B131462046E768FFF7E7
:103B2000C1FD0120E76085F311881CE410B5040095
:103B300007D140F22F62AFF2C041AFF2B04005F0C2
:103B400095F801F0A5FDA46B01F0BCFD204691E5C0
:103B500010B5040007D140F24162AFF2E441AFF288
:103B6000D44005F083F801F093FDD4E90E10441A17
:103B700001F0A8FD20467DE510B5040007D140F214
:103B80005162AFF20C51AFF2FC4005F06FF8A06B40
:103B900070E56D4A002102EBC1035B68834206D1E8
:103BA000002042F8310002EBC10148607047491C17
:103BB0000829F0D3704710B5040007D140F25D62C8
:103BC000AFF24C51AFF23C5005F050F82046FFF7F1
:103BD000E0FF2046BDE8104001F075BEC06C7047A4
:103BE000C164704790F85000704710B5040007D1C9
:103BF00040F29372AFF28051AFF2705005F036F898
:103C0000A06B08B1002035E5012033E510B50400B4
:103C100007D140F2BA72AFF2A051AFF2905005F066
:103C200025F8A06BE16B884201D1012022E500203C
:103C300020E510B5444B002253F832401CB1521C11
:103C4000082AF9D316E543F8321003EBC2014860A5
:103C500010E510B500243C4A214602EBC1035B6825
:103C6000834202D152F8314002E0491C0829F4D3C2
:103C70002046FFE470B515460E46044601F008FDE7
:103C800094F944100020491C01D184F8440094F9AF
:103C90004510491C01D184F8450001F013FDA06BCB
:103CA00028B92A46314604F1240000F0B6FD20462A
:103CB000BDE87040FFF7C8BB00220421FFF730BB0E
:103CC00070B50D46044601F0E3FCA06C08B9A06B8A
:103CD00008B1002401E0A564012401F0F3FC2046B2
:103CE00070BD10B50446806C884201D1A06B08B14C
:103CF0000020BFE401F0CCFC0020A06401F0E2FC55
:103D00000120B7E408B500230A4669460093FFF78F
:103D1000DCFC009808BD08B500210A460091694600
:103D2000FFF780FE009808BD10B5044601F0B0FC16
:103D3000A06B20B1002401F0C5FC20469AE40124C8
:103D4000F9E7000004ED00E0640100202DE9F041F6
:103D5000054601F09DFCFE4EB068401CB060306826
:103D6000FC4F10B1706930B32BE03560B0680128AA
:103D700027D1002404EB840007EB8000FFF74CFA06
:103D8000641C202CF6D3F448FFF746FAF2481430AE
:103D9000FFF742FAF0482830FFF73EFAEE483C3091
:103DA000FFF73AFAEC485030FFF736FAEA4870630A
:103DB0001430B06305E03068E96AC06A884200D810
:103DC0003560706A0121401C70626865E86A32697A
:103DD00081401143316100EB800007EB8000291D19
:103DE000FFF728FA01F06EFC706900280CD03068EB
:103DF000E96AC06A884207D2D8494FF0805008600B
:103E0000BFF34F8FBFF36F8FBDE8F0812DE9FF5FE8
:103E10008346DDE90E87994616468A46900001F0F2
:103E2000E7FC05001AD06C2001F0E2FC040012D07F
:103E300025630021CDE90241CDE900874B4632469A
:103E40005146584601F087F82046FFF77FFF0120D2
:103E500004B0BDE8F09F284601F035FD4FF0FF307B
:103E6000F6E770B5044601F013FCB94D04B92C68AF
:103E7000201DFFF703FA58B9E06AB64A00EB80014B
:103E800052F8211021B90121814028698843286115
:103E9000A06A18B104F11800FFF7F0F9686A401C35
:103EA00068622868844208D1AB48211D3C30FFF786
:103EB000C1F96868401C686007E0A868401EA860F7
:103EC000204601F0A1F801F092F801F0FBFB6869CF
:103ED000002812D0286884420FD1286B28B140F204
:103EE00065429FA1A3A004F0C1FE9C494FF0805001
:103EF0000860BFF34F8FBFF36F8F70BD2DE9F041A6
:103F0000934F0026386B38B1B869401CB861F86926
:103F100000B10126304677E7FD686D1CFD6011D1C8
:103F2000786B006828B140F6D9128DA191A004F0F9
:103F30009DFE786BB96B7963B863386A401C386250
:103F400001F055F8B86ADFF80C82854209D3786B26
:103F5000006880B1786BC068C468606885420DD223
:103F6000B8623868C06A00EB800158F82100012867
:103F7000CDD90126CBE74FF0FF30F1E7201DFFF749
:103F80007DF9A06A18B104F11800FFF777F9E06A2B
:103F900001213A6981401143396100EB800108EB4E
:103FA0008100211DFFF746F9E06A3968C96A884235
:103FB000CDD30126CBE72DE9F047654D00242746F8
:103FC000286B28B94FF4FD6265A16AA004F04EFE8B
:103FD00001F05EFB286B401E2863286BF0BBA868CD
:103FE0005D4928310126C8B3DFF868918846D8F8C2
:103FF0000010E9B1D8F80C00C46804F11800FFF70C
:104000003DF9201DFFF73AF9E06A2A6906FA00F146
:104010001143296100EB800109EB8100211DFFF7AD
:1040200009F9E06A2968C96A8842E0D3EE61DEE7EF
:104030000CB100F0DCFFAC693CB1FFF75FFF00B1F1
:10404000EE61641EF9D10020A861E86930B14349EE
:10405000012738070860BFF34F8F00E001E0BFF38E
:104060006F8F01F02FFB3846BDE8F0872DE9F04156
:10407000374E0F460446F5683068001DFFF7FEF81E
:1040800038B9306890F82C1001208840316981439C
:104090003161601C08D13FB13168BDE8F0412E4864
:1040A0005030091DFFF7C6B830682C44AC4244605C
:1040B000316805D2B06BBDE8F041091DFFF7C6B805
:1040C000706B091DFFF7C2F8B06A844200D2B46277
:1040D0009AE61F48016B491C016370472DE9F041C6
:1040E0000E4605004FF0000405D140F279421CA1B4
:1040F00020A004F0BBFD2EB940F27A4218A11DA009
:1041000004F0B4FD124F386B28B140F27B4214A189
:1041100018A004F0ABFDFFF7DCFFFA6828688119EE
:10412000904202D9884202D804E0884201D89142E4
:1041300000D9012429601CB1881A0021FFF796FFDD
:10414000FFF739FF002822D14FF08050034919E0D2
:104150003C000020A40100202404002004ED00E025
:104160002E2E5C4672656552544F535C7461736BBE
:10417000732E63004572726F723A25732C25640D9D
:104180000A0000000860BFF34F8FBFF36F8F3BE65C
:1041900010B5040014D0FE49096B39B140F2CF428A
:1041A000AFF24401AFF2340004F060FDFFF791FF7D
:1041B00000212046FFF75AFFFFF7FDFE002807D138
:1041C000F4494FF080500860BFF34F8FBFF36F8FFB
:1041D00010BD70B5050007D140F2FB42AFF280017F
:1041E000AFF2700004F042FDE94E3068854201D123
:1041F000002070BD01F04CFA6C6901F063FA706B3D
:10420000844202D0B06B844201D1022070BDE248EA
:10421000844204D1A86A0028F7D1032070BDDE488B
:104220001438844202D00CB1012070BD042070BD4E
:1042300010B5044601F02CFA0CB9D5480468E46ABC
:1042400001F040FA204610BD10B5044601F05FFAB7
:104250005020EFF3118180F31188BFF34F8FBFF32C
:104260006F8F0CB9CA480468E06A81F3118810BDE9
:104270002DE9F04100260D460446202908D34FF4CD
:10428000B062AFF22411AFF2141004F0EFFC1F255E
:1042900001F0FEF9BE4F04B93C68E06DA8423FD082
:1042A0003968854206D98C4207D03968C96AA94263
:1042B00002D902E08C4200D10126E16A8846884298
:1042C00000D1E562E565A069002802DBC5F12000A8
:1042D000A061B24D08EB8800616905EB8000814266
:1042E00015D1201DFEF7CAFF012120B93A6901FA54
:1042F00008F082433A61E06A3A69814011433961CA
:1043000000EB800005EB8000211DFEF793FF3EB11E
:10431000A0494FF080500860BFF34F8FBFF36F8FFD
:10432000BDE8F04101F0CEB970B5994D286B10B1E0
:104330000120E86170BD0020E8612869974EB0FA5D
:1043400080F0C0F11F0000EB800456F8240038B95B
:1043500040F6F622AFF2F811AFF2E81004F086FC56
:1043600006EB840000F1080241684968416091420F
:1043700001D149684160C868286070BD70B50446C5
:1043800001F086F9824D04B92C68201DFEF776FFF6
:1043900058B9E06A814A00EB800152F8211021B936
:1043A00001218140286988432861A06A18B104F17D
:1043B0001800FEF763FF211D7748FEF73BFF01F071
:1043C00081F9686928B101F063F900F010FE01F08D
:1043D00079F92868844213D1686990B1286B38B1A3
:1043E00040F25762AFF28821AFF2782004F03EFC31
:1043F00068494FF080500860BFF34F8FBFF36F8F55
:1044000070BD6548A9680068884202D10020286014
:1044100070BDBDE8704087E770B50025040007D186
:1044200040F28162AFF2C821AFF2B82004F01EFC66
:1044300059496069884205D1A06A2839884201D06B
:1044400000B90125284670BD70B504002BD0504D31
:104450002868844231D001F01BF92046FFF7DCFFC9
:10446000E8B1201DFEF70AFFE06A01212A698140B8
:1044700011432961494900EB800001EB8000211DB7
:10448000FEF7D8FEE06A2968C96A884207D3414925
:104490004FF080500860BFF34F8FBFF36F8FBDE8C0
:1044A000704001F00FB940F2AB62AFF24C31AFF2A5
:1044B0003C30BDE8704004F0D9BB70BD2DE9F0413F
:1044C0000026040007D140F2E262AFF26C31AFF295
:1044D0005C3004F0CBFB01F01AF95020EFF31185AA
:1044E00080F31188BFF34F8FBFF36F8F2046FFF724
:1044F00093FFF0B1264F386B20B1274804F1180123
:10450000283814E0E06A3968C96A884200D3012675
:10451000201DFEF7B3FEE06A01213A698140114394
:1045200039611E4900EB800001EB8000211DFEF780
:1045300081FE85F31188304666E4184E4FF08054B2
:10454000144D00F06BFD30680128FAD92C60BFF3E0
:104550004F8FBFF36F8FF4E71CB50D4800242C304C
:10456000CDE90040234682220DA10F48FFF74EFC03
:10457000012803D100F06DFE01281BD0401C2BD177
:1045800040F28472AFF22841AFF2184002B00DE061
:104590003C00002004ED00E074040020A401002091
:1045A00049444C45000000003B450008BDE8104070
:1045B00004F05CBB502080F31188BFF34F8FBFF332
:1045C0006F8FFA484FF0FF31816201214161C46071
:1045D000BDE81C4001F01AB81CBD502080F31188C2
:1045E000BFF34F8FBFF36F8FF0490020486101F098
:1045F00043B8EE48C068704710B501F088F8EB4842
:10460000C06810BDE9488068704710B510B1044615
:104610001CB10AE0E5480468FAE740F68C02AFF204
:10462000C041AFF2B04004F021FB04F1340010BDF2
:104630002DE9F0471E4691460C4607000ED0054670
:1046400005F13400C4E90050E86A2061286BE0619C
:10465000686DA060207B032803D00AE0D34805687A
:10466000EEE7FFF736FDA86A08B102202073FFF7D6
:10467000A2FC4FF00008E86DC4E90508052E01D042
:10468000267303E03846FFF7A4FD2073B9F1000F4D
:104690000AD00021286B01E0401C491C0278A52AA1
:1046A000FAD088082084DFE4A4F82080DCE42DE937
:1046B000F0478146086892460C460025F8B14868E4
:1046C00001F1080640684860B04201D14068486086
:1046D000D0F80C80606842686260B24201D15168D3
:1046E0006160606805EBC50109EB8101C76853464D
:1046F00001223846FFF79CFF6D1C4745EAD128464A
:10470000B2E42DE9F04717460A4606460024202564
:10471000FFF7DFFCDFF89482D8F8080082423AD332
:10472000DFF88C926D1E05EB850104EBC40009EBEC
:10473000810106EB80000122FFF7B9FF0444002D40
:10474000F0D104EBC40006EB800002224546D8F805
:104750003410FFF7ACFF044404EBC40006EB800008
:104760000222A96BFFF7A3FF044404EBC40006EB8D
:10477000800004228F49FFF79AFF04448D4904EB1F
:10478000C40006EB800003221431FFF790FF0444BD
:104790000FB100203860FFF70EFC204664E470B5CE
:1047A0000D46040007D140F60632AFF24C61AFF27D
:1047B0003C6004F05BFA7D48016820461831FEF742
:1047C00045FD2846BDE8704001214FE42DE9F04148
:1047D00017460E46050007D140F61732AFF280614A
:1047E000AFF2706004F042FA704C206B38B940F6BA
:1047F0001B32AFF29461AFF2846004F037FA2168A3
:1048000046F000408861216828461831FEF712FD05
:104810003846BDE8F041012128E470B514460E4643
:10482000050007D140F63132AFF2CC61AFF2BC6087
:1048300004F01CFA5D48016828461831FEF7FAFCBE
:104840000CB14FF0FF3621463046BDE870400DE414
:104850002DE9F041C068C4683CB940F66132AFF25E
:104860000071AFF2F06004F001FA04F1180007469D
:10487000FEF704FD4D4D286B012660B14D483946C9
:104880001438FEF7D7FCE06A2968C96A884212D951
:104890000120EE611CE4201DFEF7F0FCE06A2A69AD
:1048A00006FA00F111432961414900EB800001EB58
:1048B0008000211DE5E700200AE470B53B4D064667
:1048C0000C46286B38B940F69932AFF26C71AFF2F2
:1048D0005C7004F0CBF944F000403060F4683CB9FF
:1048E00040F6A132AFF28871AFF2787004F0BEF9F1
:1048F0003046FEF7C3FC201DFEF7C0FCE06A01262F
:104900002A6906FA00F111432961294900EB800068
:1049100001EB8000211DFEF78DFCE06A2968C96A61
:10492000884202D90120EE6170BD002070BD10B533
:10493000040007D140F6C132AFF2DC71AFF2CC70A7
:1049400004F094F91948016A2160C068606010BDE4
:1049500070B50D46040007D140F6CB32AFF600012A
:10496000AFF2F07004F082F93DB940F6CC32AFF608
:104970001001AFF6000004F079F900F089FE0B4A4F
:10498000D06829684B1C0FD02368126A934202D06A
:104990006268824210D96268801A88420CD2081A72
:1049A00028602046FFF7C3FF002406E03C000020FB
:1049B000A401002060040020012400F083FE2046B2
:1049C00070BDFF490120C8617047002800D0806D8C
:1049D0007047002800D081657047F948006870472B
:1049E000F748416919B1006B18B1002070470120E8
:1049F00070470220704770B5040039D0F04DE06A6E
:104A00002968C96A884233D2A069002804DB286873
:104A1000C06AC0F12000A061E06AEA4E00EB8000AD
:104A2000616906EB800081421FD1201DFEF726FC44
:104A3000012150B9E06A00EB800256F8222022B929
:104A40002A6901FA00F082432A612868C06AE0629C
:104A50002A6981401143296100EB800006EB800048
:104A6000211DBDE87040FEF7E5BB2868C06AE06222
:104A700070BD70B504004FF0000640D0D04D2868DE
:104A8000844207D040F6C762AFF62C11AFF61C1077
:104A900004F0ECF8206E38B940F6C962AFF6401168
:104AA000AFF6301004F0E2F8206E401E2066E26D92
:104AB000E16A914223D010BB201DFEF7DFFBC14904
:104AC000012250B9E06A00EB800351F8233023B98A
:104AD0002B6902FA00F083432B61E06DE062C0F1C4
:104AE0002000A061E06A2B6982401A432A6100EB32
:104AF000800001EB8000211DFEF79CFB0126304663
:104B000070BD2DE9FF41002705460770AC4881685C
:104B10000291806800EBC000800000F069FE060092
:104B20004BD000220299FFF7ECFDCDE90207384691
:104B30003AE000EBC00006EB8001087B01280FD0B3
:104B400002280FD003280FD004280FD00024496872
:104B5000284604F071F9284604F092F9202109E072
:104B60005224F4E74224F2E75324F0E74424EEE72A
:104B70002954401C1F28FBD32F540544039800EBF5
:104B8000C00006EB80008268018CCDE90012036949
:104B900022468DA1284604F075F8284604F070F9E5
:104BA00005440398401C039002998842C1D304B085
:104BB0003046BDE8F04100F086BEBDE8FF81804987
:104BC00008680A688069D26A0968C2F120028A61AD
:104BD00070477B49086818B10868026E521C02666B
:104BE0000868704770B50C46064600F051FD744DDC
:104BF0002868406E80B92968012081F868005CB19E
:104C000001212046FFF732FA73494FF080500860C7
:104C1000BFF34F8FBFF36F8F00F054FD00F038FDEE
:104C20002868446E002034B116B12968486602E055
:104C30002A68611E5166296881F8680000F042FD0B
:104C4000204670BD2DE9F0411E46154688460746B0
:104C500000F01EFD5A4C206890F86800022814D01D
:104C60002068416EB94341662168012081F86800DF
:104C70005EB101213046FFF7F9F957494FF08050F6
:104C80000860BFF34F8FBFF36F8F00F01BFD00F084
:104C9000FFFC15B12068406E2860206890F868001D
:104CA00001280DD02068416E21EA080141660125E6
:104CB0002168002081F8680000F004FD28463BE4EC
:104CC0000025F5E72DE9F0411F4690460D4604000A
:104CD0004FF0010607D141F2FD02AFF67C31AFF68D
:104CE0006C3003F0C3FF00F0D3FC0FB1606E38608E
:104CF00094F86800022184F86810B8F1050F0ED20C
:104D0000DFE808F00D03060C0A00616E294301E09C
:104D1000616E491C616602E0022803D065660128C5
:104D200002D02AE0002628E0201DFEF7A7FA244D35
:104D3000E06A01212A69814011432961214900EB80
:104D4000800001EB8000211DFEF774FAA06A38B1E3
:104D500041F23512AFF6F831AFF6E83003F086FFD6
:104D6000E06A2968C96A884207D91B494FF0805018
:104D70000860BFF34F8FBFF36F8F00F0A3FC304686
:104D800088E52DE9F0471F46DDF8209092460D4654
:104D900004004FF0010807D141F26812AFF640411C
:104DA000AFF6304003F062FF00F0B1FC5020EFF3AB
:104DB000118680F31188BFF34F8FBFF36F8F0DE023
:104DC0003C000020A4010020092563092575092560
:104DD000750925750D0A000004ED00E00FB1606E45
:104DE000386094F86800022184F86810BAF1050F61
:104DF0000ED2DFE80AF00D03060C0A00616E2943AB
:104E000001E0616E491C616602E0022803D065661C
:104E1000012803D031E04FF000082EE0A06A38B13D
:104E200041F2AF12AFF6C841AFF6B84003F01EFF33
:104E30008D4D286B012778B104F118018B48FEF7DE
:104E4000F9F9E06A2968C96A884216D9B9F1000FF0
:104E500012D0C9F8007010E0201DFEF70FFAE06ACA
:104E60002A6907FA00F11143296100EB80018048AB
:104E700000EB8100211DE2E7EF6186F311884046D7
:104E800011E42DE9F0418846040007D141F2E31214
:104E9000AFF63451AFF6245003F0E8FE00F037FCD3
:104EA0005020EFF3118780F31188BFF34F8FBFF3CA
:104EB0006F8F94F86800022184F86810616E491CB5
:104EC000616601282ED1A06A38B141F20922AFF6FD
:104ED0007051AFF6605003F0C9FE634D286B012698
:104EE00078B104F118016148FEF7A4F9E06A296875
:104EF000C96A884216D9B8F1000F12D0C8F800600C
:104F000010E0201DFEF7BAF9E06A2A6906FA00F1FE
:104F100011432961564900EB800001EB8000211DFF
:104F2000E2E7EE6187F31188B4E410B558B10446A6
:104F300000F0AEFB94F86800022807D0002400F0CF
:104F4000C1FB204610BD48480468F1E7002084F802
:104F500068000124F3E72DE9F0470E46DDE90984F6
:104F60001746824691009946089DA522206B03F0C2
:104F7000EBFF6FF00301206B01EB8701084420F089
:104F80000707780705D040F22B323AA13EA003F084
:104F90006DFE00202218315C82F83410315C11B1B2
:104FA000401C2028F6D3002684F85360202D00D31F
:104FB0001F25E562C4E91756201DFEF738F904F1F4
:104FC0001800FEF734F92461C5F120006462A06185
:104FD000666684F868604A465146384600F0F9FA39
:104FE0002060B8F1000F01D0C8F8004048E71E4823
:104FF000416B096829B1416BC968C9684968816218
:1050000070474FF0FF31FAE710B50446006B00F02F
:105010005AFC2046BDE8104000F055BC70B5134E58
:10502000114D14361CE0FFF754F8306820B100240D
:10503000FEF7C1FFA4B901E00124F9E700F028FB65
:10504000F068C468201DFEF719F9A868401EA86022
:105050006868401E686000F035FB2046FFF7D4FF0B
:1050600068680028DFD170BD3C0000204C0400209F
:10507000A40100202E2E5C4672656552544F535C8D
:105080007461736B732E63004572726F723A25738D
:105090002C25640D0A00000070B500244160F74D16
:1050A0000061914206D8D11A8269914206D2011D4F
:1050B000286907E09A4203D2994201D3012403E010
:1050C000011DE868FEF7C2F8204670BD2DE9FF47D4
:1050D0009946DDF830A090460D4606004FF00007D7
:1050E00005D14FF4D372E6A1EBA003F0BFFDE34C72
:1050F000206880B1CDE900580296062D11DAFFF73D
:105100006FFC02284FF0000309D000226946206896
:10511000FEF7D6F9074604B03846BDE8F087524698
:10512000F4E700234A466946FEF7C2FBF2E770B592
:1051300086B0D24E53E00198002806DADDE903017B
:10514000029A90470198002849DB039C606910B1DE
:10515000201DFEF793F805A800F04DF905460198CB
:105160000A283CD2DFE800F00505053B2738050595
:105170003B270298A169034601442A462046FFF7CF
:105180008BFF00282BD0616A20468847E069012800
:1051900025D1002000900298A169002342181946E9
:1051A0002046FFF793FFD0B940F22132B4A1BAA054
:1051B00003F05CFD13E00298A06128B94FF44E7231
:1051C000AFA1B5A003F052FDA0692B4641191A46C4
:1051D0002046FFF761FF02E0204600F074FB002349
:1051E0001A4601A93068FEF770FA0028A3D106B06C
:1051F00070BDA24CE068016839B1002139B10020CE
:1052000000F00BF9FFF793FFF4E70121F6E7C06820
:105210000068F5E710B500F03BFA984C2068A0B99B
:10522000A148FDF7F9FFA0481430FDF7F5FF9E48AF
:10523000E06014302061002210210520FEF770F894
:10524000206010B199A1FEF7F4FCBDE8104000F019
:1052500039BA1CB50024FFF7DDFF8848006868B143
:1052600086491F20091DCDE9000100234FF48272F9
:1052700090A19248FEF7CAFD040005D140F2331216
:105280007FA185A003F0F2FC20461CBD2DE9F0476C
:105290000746994616460D462C20DDF820A000F062
:1052A000A7FA040014D0B8464F46D1462DB94FF4A2
:1052B000C67283A188A003F0D9FCFFF7ABFF04F10D
:1052C0001801C4F8008081E8E002201DFDF7AFFF5F
:1052D000204622E710B5694C606828B94FF4E8729F
:1052E00067A16DA003F0C2FC606810BD10B504009A
:1052F00005D140F2D91262A167A003F0B7FCA06902
:1053000010BD10B5040005D140F2E3125CA162A00B
:1053100003F0ACFC606810BD10B5040005D140F28C
:10532000ED1257A15CA003F0A1FC206810BD10B5E0
:10533000040005D140F2DA3251A157A003F096FCE7
:1053400000F0A6F9606908B1012400E0002400F033
:10535000B9F9204610BD10B5040005D140F2EF3276
:1053600047A14DA003F082FC00F092F9246A00F0FE
:10537000A9F9204610BD70B50D46040005D140F2D4
:10538000FF323FA144A003F071FC00F081F92562D7
:10539000BDE8704000F096B97FB56FF0010401AE32
:1053A000009486E8070035481D4600232A466946D2
:1053B0000068FEF77DFA04B070BD2DE9FF412F4C67
:1053C00007469846206815460E4628B940F22B42FB
:1053D0002BA131A003F04AFC4FF0FF30CDE90007CC
:1053E000CDE902650023424669462068FEF768F869
:1053F00004B0BDE8F08170B50546FFF7FAF81F4E1E
:105400000446B068844203D200F070F8012000E046
:10541000002028602046B46070BDF8B50D460646F1
:10542000FEF757FE6846FFF7E6FF0446009810B106
:10543000FEF7C1FDF8BD1148ADB101690968D9B1E8
:105440000025311B2A460068FEF714FCFEF7B3FD69
:105450000028EFD124494FF080500860BFF34F8FF0
:10546000BFF36F8FF8BDA642EBD8FEF7A4FD21462F
:10547000304600F06EF8F8BD0125E2E77800002024
:105480002E2E5C4672656552544F535C74696D658F
:1054900072732E63000000004572726F723A2573BA
:1054A0002C25640D0A00000088040020546D725100
:1054B00000000000546D722053766300F351000821
:1054C0002E2E5C4672656552544F535C74696D654F
:1054D00072732E63000000004572726F723A25737A
:1054E0002C25640D0A00000004ED00E0F8B52F4EF5
:1054F00027E0C068C4680568201DFDF7BFFE616A2B
:1055000020468847E06901281BD1A0692844A842A9
:1055100006D924616060211DF068FDF797FE10E058
:1055200000200346014600902A462046FFF7CEFDA4
:1055300038B940F29232AFF27801AFF2640003F072
:1055400095FBF06801680029D3D13169C6E90310E1
:10555000F8BDF8B5054615480E46C068C068C46871
:10556000201DFDF78BFEE069012818D1A0692B46AC
:10557000411932462046FFF78FFD80B100200346D7
:10558000014600902A462046FFF7A0FD38B94FF4A7
:105590000272AFF2D401AFF2C00003F067FB616AA0
:1055A00001B02046BDE8F040084700007800002028
:1055B00069484068401C04D0F42268A172A003F03E
:1055C00055FB502080F31188BFF34F8FBFF36F8FCF
:1055D000FEE710B5031F4FF080741C601B1F21F005
:1055E00001011960191F6C4B0B60143940380A60B7
:1055F00010BD6A484FF47A710068B0FBF1F14FF0CA
:10560000E020491E41610721016170471CB56449D2
:1056100008780190FF20087008788DF800009DF848
:1056200000004D4A00F0500010700720906007E025
:105630009068401E90609DF8000040008DF80000CA
:105640009DF800000006F3D4107A000200F4E06038
:105650009060019808705348016841F4700101603E
:10566000016841F070410160FFF7C3FF0020506006
:10567000FAF7ECFD00201CBD37484068B0F57A7F92
:1056800005D04FF4B57235A13FA003F0EFBA7047D3
:10569000502080F31188BFF34F8FBFF36F8F2E49D7
:1056A0004868401C486001280BD13E481C380068FF
:1056B00010F0FF0F05D04FF4BD7228A132A003F007
:1056C000D5BA704710B5244C606828B940F28112F1
:1056D00022A12DA003F0CAFA6068401E606001D1CB
:1056E00080F3118810BD10B5502080F31188BFF3EE
:1056F0004F8FBFF36F8FFEF701FC20B129494FF0A8
:1057000080501C390860002080F3118810BD10B54E
:10571000FAF7D2FD104C10280CD300F1E02090F8DD
:10572000F0032178884205D24FF42A720BA116A00B
:1057300003F09CFA1B4814380068A16800F4E0608C
:10574000884207D9BDE810404FF42E7203A10EA085
:1057500003F08CBA10BD00008C0000202E2E5C4699
:1057600072656552544F535C706F727461626C6500
:105770005C525644535C41524D5F434D335C706FF5
:1057800072742E63000000004572726F723A2573C6
:105790002C25640D0A000000B1550008000000200F
:1057A00000E400E020ED00E030B5744900E011466F
:1057B0000A688242FBD34B685C18844203D140687C
:1057C00018444860084643681C18944209D16B4C41
:1057D000103C2468A24209D052681A4442600A6808
:1057E00012680260814200D0086030BD0460F9E7B1
:1057F0002DE9F04105460026FEF76BFC5F4F103F98
:10580000386808B900F098F8F86805424ED1002DC4
:105810004CD0083568070BD005F00700C0F1080030
:105820000544680704D0BF2255A15FA003F01EFA0B
:10583000002D3BD07868854238D850490846046826
:1058400001E0214604466068A84202D22068002890
:10585000F7D13868B846844228D00E6820680860BE
:1058600060680836401B10280ED96719780704D0E5
:10587000EC2243A14CA003F0F9F96068401B78606A
:1058800038466560FFF790FF6168D8F8040042462B
:10589000401AC8F80400D8F80830984200D2906046
:1058A000D8F80C0001430020C4E90001FEF783FB97
:1058B000700705D04FF4967231A13BA003F0D6F9E2
:1058C0003046BDE8F08170B500282BD02B4DA0F1FB
:1058D0000804103D6068E968084205D14FF4A072E1
:1058E00027A131A003F0C2F9206828B140F241128B
:1058F00023A12DA003F0BAF96068E968084211D02D
:105900002268002A0ED188436060FEF7E2FB6068DF
:105910006968084468602046FFF746FFBDE87040AC
:10592000FEF749BB70BD15481038406870471348F2
:1059300010388068704770471F484FF42041420775
:1059400006D0C01D1C4920F00700411AC1F52041B6
:105950000A4A00230144C2E900030839103A21F041
:10596000070111604B600B600B1AC0E900139360D4
:105970004FF000405360D06070470000A800002046
:105980002E2E5C4672656552544F535C706F727474
:1059900061626C655C4D656D4D616E675C686561EB
:1059A000705F342E630000004572726F723A257387
:1059B0002C25640D0A000000B00400204FF0FF35D4
:1059C000CA4C00232A461946606DFDF77EFE012869
:1059D000F7D1C7A003F04AF9C6A003F047F9D5A054
:1059E00003F044F9E3A003F041F9D2A003F03EF93B
:1059F000C0A003F03BF9EFA003F038F9BDA003F01D
:105A000035F9FC48FFF77DF8FA49FBA003F02EF9C1
:105A1000B8A003F02BF9B6A003F028F900231A462A
:105A20001946606DFDF74CFD0020FEF7A7FC012034
:105A3000FEF7AEFBC5E71CB50120AC4C8DF80400A9
:105A4000851E00232A461946206DFDF73EFE0128DB
:105A500022D100231A4601A9E06CFDF736FE012889
:105A600014D19DF80400012804D0022804D0032892
:105A70000CD103E0E24802E0E24800E0E248802383
:105A8000002100901A460846FBF73DFA00231A460B
:105A90001946206DFDF714FD0A20FEF779FBD0E7CB
:105AA0000EB50020914C00900190029002AA01A92D
:105AB000684602F0D2FF00231A466946206CFDF7C3
:105AC000FFFC00231A4601A9606CFDF7F9FC0023D6
:105AD0001A4602A9A06CFDF7F3FC0A20FEF758FB5A
